:020000040000FA
:1000000030130020F5180000FD1800000119000051
:1000100000000000000000000000000000000000E0
:10002000000000000000000000000000191900009E
:1000300000000000000000001B190000990E0000E5
:100040004F240000DD2B000021190000951F000047
:10005000A51F0000B51F0000BF1F0000893300006E
:10006000933300009D3300003919000067480000F9
:10007000391900003919000039190000B1330000A6
:10008000BB3300007148000039190000913B0000AB
:100090009B3B0000A733000039190000391900000C
:1000A0003919000039190000391900003919000008
:1000B00061220000CB150000391900003919000039
:1000C00000F002F800F030F80CA030C8083824180E
:1000D0002D18A246671EAB4654465D46AC4201D180
:1000E00000F022F87E460F3E0FCCB6460126334282
:1000F00000D0FB1AA246AB4633431847B466000053
:10010000D46600000023002400250026103A01D305
:1001100078C1FBD8520700D330C100D50B607047BF
:100120001FB51FBD10B510BD06F0BEF91146FFF793
:10013000F7FF00F070F906F0D6F903B4FFF7F2FF0D
:1001400003BC06F0DDF9000070B505460C46164606
:1001500002E00FCC0FC5103E102EFAD2082E02D3AB
:1001600003CC03C5083E042E07D301CC01C5361FBE
:1001700003E021782970641C6D1C761EF9D270BDD5
:1001800010B50446601EFA49884201D9012010BD0D
:10019000601EF84948610321081F00F034FA00206E
:1001A000F4498861072008610020F0E710B57D213F
:1001B000C900F148006806F0C7F80446FFF7E0FF01
:1001C00010BD1CB50446230006F0CCF906040C143F
:1001D0001C242C3402216846017008214170E74834
:1001E000019027E002216846017009214170E4482E
:1001F00001901FE00221684601700A214170E14828
:10020000019017E00221684601700B214170DE4821
:1002100001900FE00221684601700C214170DB481B
:10022000019007E00221684601700D214170D84815
:10023000019000BF00BF684602F060FA1CBD30B5F7
:1002400087B00146002005E0002344006D462B5393
:10025000431CD8B20D28F7DB002020E0CB00CD4CAA
:100260001B191B5CDB07DB0F002B07D043006C4620
:10027000E35A4024234344006D462B5343006C460D
:10028000E35ACC00C34D6419245C24027F256D021F
:100290002C40234344006D462B53431CD8B20828FE
:1002A000DCDBBD4A00200FE0062805DA43006C467F
:1002B000E35A8400135105E043006C46E45A431CA2
:1002C0009B00D450431CD8B20828EDDB07B030BDEA
:1002D00070B587B00346002005E0002144006D465C
:1002E0002953411CC8B20D28F7DB00201DE0002176
:1002F00016E0062909DA44006D462C5B01258D4085
:100300002C4345006E46745309E044006D462C5B57
:100310004D1C0126AE40344345006E467453491CC3
:100320005C1CA142E5DB411CC8B20828DFDB9A4A0D
:1003300000200FE0062805DA41006C46615A84006F
:10034000115105E041006C46645A411C890054502B
:10035000411CC8B20828EDDB07B070BD10B58F484E
:100360008F4908608F4890490880002411E06000A0
:100370008E49095A62008C48801C81526100405AA3
:100380008B49884203DD62008748801C8152601CD3
:10039000C4B28848C07CA042E9DC01208007C06A62
:1003A0000121490788434900C8620846406B49104B
:1003B0008843490048630846C06A49100843490019
:1003C000C8620846406B49100843490048637A48B0
:1003D0007A4908607A48C07980088000401C7849D2
:1003E000C8710846C0791C21884308307449C87117
:1003F000FF20C03008800020C0434880012000F06A
:1004000014FB0F220821084600F0CCFA00F021FB73
:1004100000F0AFFB10BD1CB505256AA103C9019111
:10042000009000F057F900F02BF90020FFF7C9FE0B
:100430007D21C9005048006805F086FF0746FFF798
:100440009FFE01F085F8FFF789FF00260024D9E020
:1004500005F0B2FD5748903040788007C00F002863
:1004600009D000F0A9FE534890304078022188431B
:100470005049903148704F486030006903280CD1D2
:10048000002C0AD0012E07D10026434800684021E5
:1004900088434149086000E00126012E22D1052C45
:1004A00004D0092C06D0112C0CD107E00120FFF755
:1004B000C6FE07E00220FFF7C2FE03E00320FFF7BD
:1004C000BEFE00BF00BF6946485DFFF701FF32482E
:1004D00000684021084330490860002135486030F9
:1004E00001618FE0334860300069012806D004289C
:1004F0000AD008280ED0102818D111E0002C01D104
:10050000052400E0002412E0002C01D1002E00D1CF
:1005100005240CE0002C01D1002E00D1092406E0B6
:10052000002C01D1002E00D1112400E000BF00BF3B
:10053000002C06D0052C08D0092C0AD0112C10D183
:100540000BE00020FFF77BFE0BE00120FFF777FEBA
:1005500007E00220FFF773FE03E00320FFF76FFEC2
:1005600000BF00BF002C31D10020FFF7B1FE46E0F4
:10057000FFFFFF0000E000E05C0600200048E8010B
:100580000024F40000127A0000093D0080841E005F
:1005900040420F0080650000406000403D100000B8
:1005A0009006002010270000940600203000002054
:1005B000FF7F0000B8090020AD08000014000020F3
:1005C0000400002000010203040506072948006911
:1005D00020210840002804D06D1C072D0BDD0725C5
:1005E00009E02448006940210840002803D06D1E1E
:1005F000002D00DA00256946485DFFF769FE0021FD
:100600001C48016124E710B5002819DB1A4A0323AE
:100610001B02D21883089B00D2588307DC0EFF23ED
:10062000A3409A438B071B0E8407E40EA3401A4392
:10063000114B032424021B198408A4001A5118E04A
:100640000E4A03071B0F083B9B089B00D2588307E9
:10065000DC0EFF23A3409A438B071B0E8407E40E96
:10066000A3401A43054B0407240F083CA408A40028
:100670001A5110BD180A002000E100E01CED00E056
:100680001FB5022168460172092141720F4803908B
:100690006846007A072815D101216846417100217A
:1006A00001710321C1700A49039805F04DFE401EF7
:1006B000C1B268464170012181700021017002F0D1
:1006C00043F800BF02A802F019F81FBD0024F4008F
:1006D00040420F0010B501F070FA10BD10B50322B2
:1006E0000021104601F0C8FA02220021032001F087
:1006F000AEFA002002F0C3F910BD10B50446002C7C
:100700001ED101220021032001F0B6FA02220021AD
:10071000032001F09CFA01220021032001F0E4FAF9
:1007200001221146032001F0A7FA02220121032031
:1007300001F08DFA01221146032001F0D5FA1FE0E5
:10074000012C1DD101220621002001F095FA022280
:100750000621002001F07BFA01220621002001F091
:10076000C3FA01220521002001F086FA02220521A8
:10077000002001F06CFA01220521002001F0B4FAFA
:1007800010BD10B501220421104601F075FA0222B5
:100790000421012001F05BFA01220421104601F03E
:1007A000A3FA01220521104601F066FA0222052172
:1007B000012001F04CFA01220521104601F094FAC3
:1007C00010BD000070B504460E46E007C00F0028BB
:1007D0006BD0FE48806A04218843FC498862FC484B
:1007E000008802218843801CF94908800846007867
:1007F000C007C00F002858D0084600784006C00F38
:10080000002852D0F348007C0007C00F002805D113
:10081000F048007CC006C00F002806D0EE48006CEF
:10082000012109060843EC490864EA488038807CC5
:10083000012835D1E748007CC009002830DD0121BE
:10084000E44880388174057C0021E348C160C068B9
:100850000121A9400843E049C860DE48A038017C76
:10086000DD488160DB48A038017EDB484161012022
:10087000DA4988620020D849203908621D20002802
:1008800005DBC206D20E01219140D54A116000BF9E
:100890001D2000F09EFA0120CF492039086204E0B3
:1008A000CC498039487C04F064FD70BD70B587B0D8
:1008B000002005E0002445006E467453441CE0B25D
:1008C0000D28F7DB00210AE0C24C203C24690125F9
:1008D0008D402C40002C00D003E04C1CE1B20829D4
:1008E000F2DB00BF00201EE0002217E0062A09DA32
:1008F00044006D462C5B012595402C4345006E4617
:10090000745309E044006D462C5B551C0126AE4033
:10091000344345006E467453541CE2B24C1CA24250
:10092000E4DB441CE0B20828DEDB002020E0CC0041
:10093000AC4D6419245CE407E40F002C07D044009C
:100940006D462C5B40252C4345006E467453440095
:100950006D462C5BCD00A34EAD192D5C2D027F267C
:10096000760235402C4345006E467453441CE0B279
:100970000828DCDB954B403300200FE0062805DA21
:1009800044006D462C5B85005C5105E044006D46DB
:100990002D5B441CA4001D51441CE0B20828EDDB73
:1009A00007B070BDF0B587B004460D461646182254
:1009B0008D4901A8FFF7C8FB00228C4901A801F06E
:1009C00051FBFF20814988607D200002704348620E
:1009D0007D2169430846214605F0B6FC471EFF2FDE
:1009E00003D9FF207949086102E0F8B2774908612C
:1009F000774800784006C00F002807D07C48C079AF
:100A00001C21884308307A49C87105E07848C079CC
:100A10001C2188437649C8716D48008808218843A5
:100A200008306B49088007B0F0BD032807DD704926
:100A3000C97989088900C91C6D4AD17108E06C49DF
:100A4000C979890889008207920F1143684AD171D8
:100A5000704710B566480078C007C00F002803D063
:100A60000721042001F092F9614800880221084022
:100A7000002803D00621042001F088F95C48008892
:100A800004210840002803D00521042001F07EF94C
:100A90005748008808210840002803D00421084650
:100AA00001F074F95248008810210840002803D052
:100AB0000321042001F06AF94D48008820210840F4
:100AC000002803D00221042001F060F94848008882
:100AD00040210840002803D00121042001F056F9EC
:100AE0004348008880210840002803D000210420CA
:100AF00001F04CF93E480088FF21013108400028F0
:100B000003D00521032001F041F939480088012173
:100B100049020840002803D00421032001F036F9DF
:100B200033480088012189020840002803D00321AE
:100B3000084601F02BF92E4800880121C90208401F
:100B4000002803D00221032001F020F92848008862
:100B5000012109030840002803D00121032001F0EE
:100B600015F91B4800882021884320301849088047
:100B700010BD10B505220721042001F07DF80222E6
:100B80000721042001F063F805220621042001F06A
:100B900073F802220621042001F059F805221146BB
:100BA000042001F069F802220521042001F04FF829
:100BB00005220421084601F05FF8022204210846BC
:100BC00001F045F805220321042013E000600040F5
:100BD00000000020380A002020370040400000407C
:100BE00080E200E00867000090670000C507000091
:100BF0000400002001F040F802220321042001F04B
:100C000026F805220221042001F036F802221146BE
:100C1000042001F01CF805220121042001F02CF829
:100C200002220121042001F012F8052200210420F3
:100C300001F022F802220021042001F008F8052228
:100C40001146032001F018F802220521032000F0CC
:100C5000FEFF05220421032001F00EF802220421E8
:100C6000032000F0F4FF05220321084601F004F8F8
:100C700002220321084600F0EAFF05220221032098
:100C800000F0FAFF02221146032000F0E0FF0522E7
:100C90000121032000F0F0FF02220121032000F0D7
:100CA000D6FF05220021032000F0E6FF02220021EA
:100CB000032000F0CCFF05220421022000F0DCFF1D
:100CC00002220421104600F0C2FF05220321022067
:100CD00000F0D2FF02220321104600F0B8FF5F4867
:100CE000C079C006400F8000801C5D4948630F201A
:100CF00008635520C862002088620846806A022185
:100D0000084357498862554800880860534840881E
:100D1000486052480088C860002048618861C86106
:100D2000086250484E494031086048608860C86099
:100D3000086148618861C861086248628862C86267
:100D4000086300204649803188604448C0798007A4
:100D5000800F43494031486302211C2000F046F8CF
:100D60001C2000F036F862B63D48406B0121084374
:100D70003B49486310BD10B53B4800780007C00FE1
:100D8000002800D110BD39480078002804D001287F
:100D900008D0022816D111E0FFF75BFE012033498D
:100DA000087013E030480078C007C00F002804D056
:100DB000FFF7DFFE02202D49087007E02C4800688D
:100DC000804703E000202949087000BF00BF00BF32
:100DD000D8E7002809DB00BF00BFC206D20E012100
:100DE0009140244A116000BF00BF704710B5002831
:100DF00019DB204A03231B02D21883089B00D25818
:100E00008307DC0EFF23A3409A438B071B0E840746
:100E1000E40EA3401A43174B032424021B19840831
:100E2000A4001A5118E0144A03071B0F083B9B0843
:100E30009B00D2588307DC0EFF23A3409A438B0705
:100E40001B0E8407E40EA3401A430B4B0407240F28
:100E5000083CA408A4001A5110BD000004000020A2
:100E600000600040FFFF000000000020180000208C
:100E70001400002000E100E01CED00E000206949C2
:100E800008606949086069490860694908606949FA
:100E9000088069490880704762480068002804D0CB
:100EA00060480068401E5F4908605F48006800288D
:100EB00004D05D480068401E5B4908605B480068DC
:100EC000002804D059480068401E58490860584816
:100ED0000068002804D056480068401E5449086045
:100EE0007047012806D0022807D0042808D0082817
:100EF0000CD108E04B4A116008E04B4A116005E054
:100F00004A4A116002E04A4A116000BF00BF00284F
:100F100009D0484A12880243464B1A80464A128832
:100F20008243454B1A807047424800887047012829
:100F300006D0022808D004280AD0082810D10BE0D7
:100F40000021384A11600BE00021374A116007E0A8
:100F50000021364A116003E00021354A116000BFCC
:100F600000BF002809D0334909888143314A1180E4
:100F7000314909888143304A1180704700202D494A
:100F80000988002936D02B490978C907C90F0029DB
:100F900005D024490968002901D1012108432549C8
:100FA000098802221140002905D01F49096800293B
:100FB00001D1022108431F49098804221140002958
:100FC00005D01A490968002901D1042108431949AB
:100FD000098808221140002905D01549096800290F
:100FE00001D108210843002804D01349098801438E
:100FF000114A1180704770B50446FFF7BFFF002506
:101000000D48008800280AD0002C08D00A48008823
:101010002040A04203D101252046FFF788FF284643
:1010200070BD0000200000202400002028000020C7
:101030002C0000201C0000201E00002038B50024D9
:10104000B3E0934A926CA300D25A914B803BDB6C85
:101050001B5D5A438E4B5B6CA5005B5BD0188C4AC2
:10106000803AD26C125D511C05F06EF981B288484D
:10107000C06CA2008152864A926CA300D21852889A
:10108000834B803BDB6C1B5D5A43814B5B6CA50043
:101090005B195B88D0187E4A803AD26C125D511C75
:1010A00005F052F981B27A48C06CA20080184180E4
:1010B0007748C06CA100415A7548806BA200805AE5
:1010C000081A01B2684601807148C06CA10040183E
:1010D00041886F48806BA20080184088081A01B2CE
:1010E000684641806A49496BA2008A5A69460020D5
:1010F000085E002801DB014600E0414251188AB237
:101100006349496BA300CA526149496BA20089181F
:101110004A886B460220185E002801DB014600E089
:10112000414251188AB25A49496BA300C9184A80F2
:1011300057488038006D005D401C55498039096D65
:10114000085553498039096D085D052105F006F9F8
:10115000C8B24F498039096D08554D488038006D37
:10116000005D00281FD14A48406BA100415A484801
:10117000406BA20080184088814205DA0020444973
:101180008039496D085504E0012041498039496D95
:10119000085500213E48406BA20081523C48406BFC
:1011A000A20080184180601CC4B239486038C07CFD
:1011B000A04200DD45E738BD10B53548406900283C
:1011C0003DD033488069002805D132480188082085
:1011D000FFF787FE36E00820FFF70DFF012831D129
:1011E000002426E02A48C06CA100415A2848006D1E
:1011F000A20081522648C06CA100401841882448B2
:10120000006DA2008018418000212148406BA2009F
:1012100081521F48406BA2008018418000201C4969
:101220008039096D08551A498039496D0855601C87
:10123000C4B217486038C07CA042D3DC02E008206A
:10124000FFF775FE00241AE011488038406F6100F6
:10125000415A62000F48801C805A81420DDD0C48C3
:1012600040690121A1408843094948610846006955
:101270000121A140884306490861601CC4B20448AA
:101280006038C07CA042DFDC01484169816110BD4B
:10129000180A002094060020002815DBC206D20E92
:1012A00001219140FE4A116000BF00BF00BFBFF3A3
:1012B0004F8F00BF00BF00BF00BF00BF00BFBFF324
:1012C0006F8F00BF00BF00BF7047F648F649C86285
:1012D000F6480862F6488862F6484861F648C860F1
:1012E000F649F1488030C163F5498163F548EE491C
:1012F0004864F5488864F549EB4880300164F44956
:101300004164F4498164F448E749C864F349E64814
:101310008030C164F2490165F2494165F249816555
:10132000F2490160F248E0498865F248C865F24830
:101330008866F2480867F2484867F249DA48803020
:101340004163F148D8490865F0484865F048886726
:10135000F048C867F049D44880308160EF49C160E7
:10136000EF494160EF49C161704710B50020CE4997
:1013700008700721CC482030C174EB480068CA4986
:101380004863E9480079C871E748007A0872E6487E
:10139000007B8870E448007C8871E3494869052136
:1013A00004F0D2FFC0498883DF498869052104F031
:1013B000CBFFBD494883DC48808B8880DA48008CAD
:1013C00081B2B94840300184D748008DC1B2B648D7
:1013D00060300171D448808C81B2B3484030C185FF
:1013E0006030007C08218843CF49C96AC9000822BF
:1013F00011400843AC49A03108740846007C102114
:101400008843C949096B0901102211400843A649C4
:10141000A0310874C448406BA03948620846A03027
:10142000007C80218843C049896BC901802211401A
:1014300008439D49A0310874BB48C06BA03988633C
:10144000B948006C0874B848406CB749896C0843C7
:1014500095490876002475E038206043B349085C5C
:101460009149C968085538206043B049401800794F
:1014700038216143AD4A8918097A08438A49496984
:101480000855382060431146401880898649896F85
:101490006200885238206043A4494018007C824989
:1014A000C96F085538206043A0494018017E7E4826
:1014B000803000680155382060439C494018007D09
:1014C0007949896E08553820604398494018008C46
:1014D0007549896D08553820604394494018007F4C
:1014E0007149C96D08553820604390494018808C77
:1014F0006D49C96C0855382060438C494018008DEF
:10150000C1B26948803080680155382060438749FE
:101510004018808DC1B264488030C06801553820C1
:10152000604382494018008E5F49496C62008852CE
:10153000382060437D494018808E5B49896C08558E
:10154000601CC4B258482030C07CA04284DC10BD6E
:1015500010B50020544908700846B0304078400863
:101560004000401CB031487008461038007C2021F3
:1015700088434D49A03108740846007C40218843C7
:101580004949A0310874FFF7A0FEFFF7EEFE03F013
:101590007BFB674800884008400065490880084692
:1015A0000088202188436249088008460088042179
:1015B00088435F49088008460088402188434030BE
:1015C0005B490880FFF75AFC10BD70B55848007899
:1015D0004006C00F00282AD05648006A082108405B
:1015E000002824D03048A030007C06218843801C8D
:1015F0002D49A03108741D20FFF74EFE4D482030C4
:10160000006C0121090688434A4920310864494891
:10161000006A0921884347490862002501E0681CE7
:10162000C5B2462DFBDB00204349886270BD1E48D1
:101630002030807C012803D11B482030047C04E04A
:101640001948C16A2030407C0C5CE0003B494018DE
:10165000006800280BD16000401C80004018006822
:10166000002804D13349086201200862DEE70E48F1
:101670002030807C012866D10B482030047CE000BB
:101680002E4940180068084988876000401C800087
:101690002A494018006881B20348C18702214FE0FF
:1016A00080E100E0EC05002098090020C806002039
:1016B000D6060020F3050020FA050020E4060020ED
:1016C000000700201C070020010600202A07002038
:1016D0004607002062070020080600207E07002041
:1016E0009A070020B8070020F00700200F0600200E
:1016F000160600201D060020240600200C080020ED
:101700001A080020280800202B060020320600209E
:10171000440800203906002040060020470600202B
:101720004E0600205506002060000020AC0000207E
:10173000000000200037004040000040003600401C
:10174000203081741FE05348C16A2030407C0C5C1B
:10175000E00051494018006881B24E488030C26BA9
:101760006038407C800011526000401C80004A4973
:101770004018006881B247488030C26B6038407CB6
:101780008000101841800020444908624148203000
:10179000407C401CC1B23F4820304174807C02280C
:1017A00011D13C48A030007C06218843001D3949F6
:1017B000A0310874002137482030417481741D2005
:1017C000FFF76AFD64E033482030417CC07C8142F1
:1017D00039D13048A030007CC009002811D12D48F3
:1017E000A030007C06218843001D2A49A0310874DE
:1017F000002128482030417481741D20FFF74CFDE2
:1018000046E0002125482030C16022482030047C79
:1018100022482030C0680121A14008431F492031DF
:10182000C8601C48017C1D48203081601948017E39
:101830001A482030416101201849086201211548E9
:101840002030817424E0002114482030C160114808
:10185000C16A2030407C0C5C10482030C0680121F7
:10186000A14008430D492031C8600A48C1682030B2
:10187000407C095C0948203081600648416920307D
:10188000407C095C05482030416101200349086221
:1018900000BFCBE69809002000360040003700402A
:1018A00072B60E480E49086015200E490863512093
:1018B000086381200C494860282048600B48086371
:1018C000002048607047002101E000BF491C084A21
:1018D000126842438A42F8D870470000A095695ABE
:1018E000001A0040C01F004000010040000358786B
:1018F000640600201448804714480047FEE7FEE7CE
:1019000004207146084203D0EFF3098010490847CC
:10191000EFF308800E490847FEE7FEE7FEE7FEE723
:1019200004207146084203D0EFF3098009490847B3
:10193000EFF3088007490847FEE70000064807491B
:10194000074A084B70470000A1180000C1000000C2
:10195000FF180000A74B0000300B002030130020C0
:10196000300F0020300F002053480078042802D1A7
:101970000620C043704750480078002818D1012045
:101980008007806A10218843890688620846006BB8
:1019900010218843890608630846806A102108439D
:1019A000890688620846006B10210843890608638F
:1019B00041480078401C404908700020DAE73E4862
:1019C0000078002801D1C01F70473B480078401EB6
:1019D000394908700846007800280CD1012080079A
:1019E000806A10218843890688620846006B1021AE
:1019F0008843890608630020E6E770B505460C4673
:101A00002E48405D002802D00220C04370BD284609
:101A100000F04CF8064600203060207800020F21CC
:101A200009020840617889000C2211400843A1781E
:101A30004900022211400843306001201F494855E7
:101A40000020E3E7014600201C4A50547047FFB5D0
:101A500081B00D4616461F46019800F027F804464F
:101A60002068174908402060206839040843206036
:101A70002068022108404008002802D1A660E560E5
:101A800001E0A560E6606068012108436060002015
:101A900005B0F0BD70B50546284600F007F80446CD
:101AA0006068400840006060002070BD0146080189
:101AB000044A80187047000068060020690600206C
:101AC000FFFF00F00004004010B502460B46002165
:101AD00018E00C204843FE4C205C904207D10C20BB
:101AE000484300194078984201D148B210BD0C20FB
:101AF0004843F74C00194068002801D148B2F5E787
:101B0000481CC1B20429E4DB0020C043EEE7FFB566
:101B100081B005460E46174631462846FFF7D4FFEA
:101B20000446601C002802D1C01F05B0F0BD0C2087
:101B30006043E7490D540C206043401846700C2068
:101B40006043401847600C216143E14A89180498BA
:101B500088600020E9E770B505460E46DD48405D27
:101B6000002800D070BD284600F06CFA0446002C16
:101B700005DBE106C90E01208840D749086000BF97
:101B8000284600F05FFA0446314600F01DFA284668
:101B900000F058FA0446002C09DB00BF00BFE10644
:101BA000C90E01208840CD49086000BF00BF00BFBA
:101BB0000120C849485500BFD4E770B5012080070F
:101BC000806A3F210902084301218907886208468B
:101BD000006B3F21090208430121890708630025A2
:101BE00031E0284600F029FA0446012D08D10020F2
:101BF000A061BB4820602803A0600020E0601DE0D9
:101C0000042D08D10020A061B64820600020A0600B
:101C1000A803E06012E0052D08D10020A061B248C1
:101C20002060B248A0600020E06007E00020A061D2
:101C3000AB48403820600020A060E0600020606079
:101C40002061681CC5B2062DCBDB002070BDF7B546
:101C50000C461646009800F0F0F907463D68610012
:101C600003208840294681430D4661003046884064
:101C700005433D600020FEBDF7B50E46009800F01C
:101C8000DCF90746072E0EDD304608388006040EC4
:101C9000FD680F20A040294681430D460298A040D0
:101CA0000543FD600BE0B006040EBD680F20A040A8
:101CB000294681430D460298A0400543BD6000209F
:101CC000FEBDF7B50C461646009800F0B6F907467B
:101CD0007D680120A040294681430D463046A04042
:101CE00005437D600020FEBDF7B50C461646009802
:101CF00000F0A3F907463D696100032088402946AA
:101D000081430D4661003046884005433D61002017
:101D1000FEBDF7B50C461646009800F08EF9074652
:101D2000BD6A0120A040294681430D46002E02D005
:101D30000120A0400543BD620020FEBD30B5044631
:101D40000D460021230004F00DFC060405061011C9
:101D5000121D00BF00BF6648C169C90AC902280236
:101D600008431043624BD8610DE000BF00BF6048DC
:101D7000C1696048014028060843130418435C4BBE
:101D8000D86100E000BF00BF002030BD70B505463F
:101D90000C46284600F051F906460120A040F061AB
:101DA000002070BD70B505460C46284600F045F988
:101DB00006460120A0403062002070BDF7B50D46F8
:101DC0001446009800F039F90646706987B2384623
:101DD0002841C007C00F002802D00120207001E078
:101DE000002020700020FEBD70B505460C46284638
:101DF00000F023F90646B461002070BD70B50546B9
:101E00000C46284600F019F906467069208000202B
:101E100070BDFFB581B00C46019800F00EF9054683
:101E2000EE6A6F6B286B009061000320884031469A
:101E300081430E46610003208840394681430F46A6
:101E400061000320884000990843009061000398D6
:101E5000884006436100049888400743EE626F6340
:101E6000009828630A990198FFF775FE002005B0D5
:101E7000F0BDF3B583B00D46039800F0DEF80446DC
:101E8000E76A606B0290206B019069000320884034
:101E9000394681430F4668000321814002988843F8
:101EA0000290690003208840019908430190E7628D
:101EB0000298606301982063002F32D1039800F0EC
:101EC000C1F80646002E2ADBF106C90E012013E0F8
:101ED000540800206D06002080E200E000E100E0F0
:101EE00095555555555555565AAA555533004444A0
:101EF00080000040FFFF00F888405649086000BF9E
:101F000000BF00BFBFF34F8F00BF00BF00BF00BFC7
:101F100000BF00BFBFF36F8F00BF00BF00BF00BF97
:101F200000BF002005B0F0BDFEB50646304600F00B
:101F300084F801900198006B00900C207043464992
:101F40004418002520E069000098C8408007800FF1
:101F5000002817D0002712E00C2078433E4944188F
:101F60002078B04209D16078A84206D16068002884
:101F700002D06168A068884703E0781CC7B2042FCC
:101F8000EADB00BF681CC5B20D2DDCDB01990098AF
:101F90000863FEBD10B50020FFF7C6FF0120FFF764
:101FA000C3FF10BD10B50220FFF7BEFF0320FFF7EF
:101FB000BBFF10BD10B50420FFF7B6FF10BD10B574
:101FC0000520FFF7B1FF10BD10B500281BDB214A2B
:101FD000803A03231B02D21883089B00D258830740
:101FE000DC0EFF23A3409A438B071B0E8407E40EED
:101FF000A3401A43174B803B032424021B19840877
:10200000A4001A5118E0154A03071B0F083B9B0850
:102010009B00D2588307DC0EFF23A3409A438B0713
:102020001B0E8407E40EA3401A430C4B0407240F35
:10203000083CA408A4001A5110BD01460802084A31
:102040008018704701460A46C80F80184010C01C0F
:1020500040B2704780E100E0540800201CED00E031
:102060000010004070B504460D4616469A480560BB
:10207000466001208007C06A012149078843490062
:10208000C8620846406B49108843490048630846C7
:10209000C06A491008434900C8620846406B4910AD
:1020A00008434900486320788C498860207908619A
:1020B000A0680003000B486200208862207B002893
:1020C00019D00846806A217B490008438349886209
:1020D00003211C2000F0C8F81C20002809DB00BFE9
:1020E00000BFC206D20E012191407D4A116000BF9F
:1020F00000BF00BF06E07948806A217B4900884321
:1021000076498862607B002806D07448006B0821FD
:102110000843724908630DE07048006B082188434A
:102120006E4908630846006BA17B4907490F0843C5
:102130006A490863E07B00280DD06848006B1021D5
:10214000084366490863207C0001617C0843C0B2F3
:102150006249C86207E06148006B102188435F490B
:1021600008630020C862608A002804D0608A5B4946
:102170008031886003E00020584980318860207DEC
:10218000002804D0207D55498031C86003E000203C
:1021900052498031C860607D8000801C4F4948638F
:1021A000002070BD4D48406B012108434B494863F6
:1021B000002070474948406B400840004749486349
:1021C0000020704730B503460C46002B19D1012082
:1021D0008007816B05150846A843014628058163E1
:1021E0004048006AC00AC0023E4D28622846006A84
:1021F000250228433B4D28622846006A1043286286
:102200000AE001208007816B05150846A8430146B6
:102210002846014300058163002030BD1CB5002025
:1022200001902E48806A0421084000902B48806A63
:1022300088432A4988622848006800280FD06846E9
:102240000078002803D001210198084301900198EB
:10225000002804D0204841680268019890471CBDBE
:1022600010B5FFF7DBFF10BD10B5002819DB1C4AC5
:1022700003231B02D21883089B00D2588307DC0E6D
:10228000FF23A3409A438B071B0E8407E40EA34051
:102290001A43134B032424021B198408A4001A5167
:1022A00018E0114A03071B0F083B9B089B00D258FC
:1022B0008307DC0EFF23A3409A438B071B0E840782
:1022C000E40EA3401A43084B0407240F083CA4085B
:1022D000A4001A5110BD00007406002000600040E8
:1022E00000E100E0800000401CED00E055207B4A4A
:1022F0005060104680680107090F794808439060D4
:102300000020704730B504460B467648764948624F
:102310000846456A012C08D12846491388430521FF
:10232000090508437049486205E028462921490407
:1023300008436D494862FFF7D9FF002B08D0012000
:10234000800740681902084301218907486008E0B6
:10235000012080074068072109028843012189077D
:10236000486030BDF8B505460E461746002428786B
:1023700004432020044380200443584804605B4801
:10238000066047606978002000F06EF800200028A1
:1023900009DB00BF00BFC206D20E01219140544AA2
:1023A000116000BF00BF00BF0020F8BD4B480068AF
:1023B00080218843494908600020002816DBC206B6
:1023C000D20E012191404A4A8032116000BF00BF05
:1023D00000BFBFF34F8F00BF00BF00BF00BF00BFF3
:1023E00000BFBFF36F8F00BF00BF00BF00BF002062
:1023F00070470146002208780F23181A02433D480F
:102400001043364B98600020704700203A4908611D
:1024100000BF00BF00BFBFF34F8F00BF00BF00BFB2
:1024200030BF00BF00BF00BF00BF7047042032496B
:10243000086100BF00BF00BFBFF34F8F00BF00BFE8
:1024400000BF30BF00BF00BF00BF00BF704710B566
:102450002248006810210843204908602348416849
:1024600002680020904710BD10B5002819DB204AF3
:1024700003231B02D21883089B00D2588307DC0E6B
:10248000FF23A3409A438B071B0E8407E40EA3404F
:102490001A43174B032424021B198408A4001A5161
:1024A0001AE0154A1C3203071B0F083B9B089B00D0
:1024B000D2588307DC0EFF23A3409A438B071B0EE1
:1024C0008407E40EA3401A430B4B1C330407240F6C
:1024D000083CA408A4001A5110BD0000005100409F
:1024E00000AAA5727F015000400000407C06002039
:1024F00000E100E00000A57200ED00E0FB49884229
:1025000009D88121FA4A516028215160F9491163A3
:102510000021516022E0F849884209D88121F44A1B
:10252000516028215160F54911630021516015E087
:10253000F349884209D88121ED4A51602821516030
:10254000F04911630021516008E08121E84A51609F
:1025500028215160EC491163002151607047F8B5A2
:1025600005460E46E949EA48006803F0EDFE1521EC
:10257000484307462B0003F0F5FF08052B54BEBE69
:10258000BE799FBEDA48C03804680F210902204690
:102590008843044630020443DE482043D449C0390E
:1025A00008600020009002E00098401C0090009815
:1025B000B842F9D3CE48C0384468E408E400204665
:1025C00028430446D4482043C949C039486093E0B1
:1025D000C748C03804680F210903204688430446D1
:1025E00030030443CB482043C149C0390860002070
:1025F000009002E00098401C0090FF20F5307843E6
:1026000000998842F6D8BA48C0384468E408E40023
:10261000204628430446C0482043B549C039486095
:102620006AE0B348C0380468F02120468843044675
:1026300030010443B7482043AD49C0390860002049
:10264000009002E00098401C00900098B842F9D336
:10265000A748C0384468E408E400204628430446FC
:10266000AD482043A249C039486045E0A048C03881
:10267000046824092401204630430446A548204329
:102680009B49C03908600020009002E00098401C7F
:1026900000900A20784300998842F7D89448C038BF
:1026A0004468E408E4002046284304469A4820434E
:1026B0008F49C03948601FE09848807E00280CD1BF
:1026C0008B48C0384468E408E4000320044392487F
:1026D00020438749C03948600CE08548C0384468C9
:1026E000E408E4002046284304468B482043804900
:1026F000C039486000E000BF00BFF8BD10B5044617
:102700002078072804D18548007E012800D000BF2A
:102710002078824948768249606808607C49606810
:1027200008607F4909681222514308467D4903F039
:102730000BFE7D49086061782078FFF710FF7B4829
:10274000FFF7DCFE002010BD18B5024600235079CB
:10275000012821D16648C0380168090A0902882089
:1027600001436C480843624CC03C2060002000904C
:1027700002E00098401C009000986428F9D35C485F
:10278000C0384168C908C9000620014362480843AF
:10279000574CC03C606020E05548C0380168090AC9
:1027A0000902A82001435B480843514CC03C20600B
:1027B0000020009002E00098401C009000986428DF
:1027C000F9D34B48C0384168C908C9000220014309
:1027D00051480843464CC03C606001208005444C91
:1027E000C03C206200BF00BF00BF00BF00BF107927
:1027F000C007C00A372464052043D4786407640BFB
:10280000204354782402204394782407240E204344
:1028100014782407240F2043354CC03C2062FF234A
:10282000373300BF581E031EFCD100E000BF304804
:10283000C038006AC00FC0070028F7D000E000BF12
:102840002B48C038006A0124A40720400028F6D095
:102850000120324C20765079A076002018BD024627
:102860002E48407E904201D1002070472048C03859
:102870000168002A06D0012A0DD0022A14D0062AA7
:102880001ED118E00F231B02084698430146012081
:10289000C002014315E00F231B030846984301467D
:1028A0000120C00301430CE0F02308469843014691
:1028B0008020014305E0090909010820014300E0E7
:1028C00000BF00BF13480843094BC03B18600020FD
:1028D000CBE702460648C0380168002A28D0012A02
:1028E0002CD0022A30D0062A36D132E0002D310118
:1028F0000001004000005878005A62020001587838
:10290000006CDC02000258780003587820A1070010
:1029100060060020000007A500000A578408002078
:102920005C06002040420F006406002000E1F5052F
:102930000F231B020846984301460EE00F231B039A
:1029400008469843014608E0F023084698430146AC
:1029500003E00909090100E000BF00BFD3480843B4
:10296000D34B186000207047F8B506460C46154654
:102970001F46022E19D0062E02D00A2E1FD109E0C2
:10298000CB488068C0210843C9498860C9480460B1
:10299000456014E0C6488068032189020843C449A1
:1029A0008860C4488460C56009E0C14880680C2123
:1029B0000843BF498860BF480461456100BF00BF4C
:1029C0000120002805DBC206D20E01219140BA4A3F
:1029D000116000BF3946012000F031F901200028C4
:1029E00009DB00BF00BFC206D20E01219140B34AED
:1029F000116000BF00BF00BF0020F8BD01460229E2
:102A000013D0062902D00A2916D106E0A84880680A
:102A1000C0229043A64A90600EE0A5488068032239
:102A200092029043A24A906006E0A14880680C227E
:102A300090439F4A906000BF00BF9D488068002877
:102A40001BD10120002816DBC306DB0E01229A40B1
:102A50009A4B80331A6000BF00BF00BFBFF34F8F97
:102A600000BF00BF00BF00BF00BF00BFBFF36F8F3C
:102A700000BF00BF00BF00BF00BF0020704702467C
:102A80008B480169490949011007000F01431020D3
:102A90000843874B18610020704785480069102162
:102AA0008843834908610020704701460120800760
:102AB0000069084301229207106100207047014617
:102AC00001208007006988430122920710610020DD
:102AD0007047014601208007806908430122920760
:102AE00090610020704701460120800780690840FE
:102AF0000122920790610020704701460120800763
:102B0000C2690A60002070470146012080074269BF
:102B10000A6000207047024601208007816B031283
:102B2000084698430146900501431802816300203E
:102B30007047024601208007816B83120846984344
:102B40000146100501439802816300207047024648
:102B500001208007816B43130846984301465004C7
:102B6000014358038163002070470246012080071B
:102B7000816B0315084698430146900201431805EE
:102B8000816300207047024601208007816B182373
:102B9000084698430146D000014301208007816325
:102BA00000207047024601208007816B49084900D8
:102BB00008461043014601208007816300207047CA
:102BC000024601208007816B402308469843014656
:102BD00090010143180681630020704710B5344806
:102BE00080682021084332498860084680680221B5
:102BF00008432F49886008468068491508432C49D6
:102C000088602C480068002805D02A48416802687E
:102C10002020904712E027480069002805D0254869
:102C2000416902690220904708E022488068002834
:102C300004D02048C16882680220904710BD10B5BA
:102C4000002819DB1D4A03231B02D21883089B00AE
:102C5000D2588307DC0EFF23A3409A438B071B0E39
:102C60008407E40EA3401A43144B032424021B19C7
:102C70008408A4001A5118E0114A03071B0F083BEF
:102C80009B089B00D2588307DC0EFF23A3409A4386
:102C90008B071B0E8407E40EA3401A43084B04075E
:102CA000240F083CA408A4001A5110BD000007A579
:102CB000400000408408002080E200E000E100E0E5
:102CC0001CED00E00146042907DA032903D00802BD
:102CD000FB4A80187047FB48FCE7081F0002FA4ACD
:102CE0008018F7E70146042906DA032902D0C81D37
:102CF00040B270471520FCE708460B3040B2F8E7B9
:102D000030B503460C4600211078002806D0012873
:102D100008D002280CD0032816D10FE000BF10788D
:102D2000187014E0012000030143107818700EE0C1
:102D30000120400301431078187008E003200003CD
:102D400001431078187002E00520C04330BD00BF79
:102D50005078002804D0012803D002280BD106E0C7
:102D600000BF0125AD030846A843014606E0012047
:102D70008003014302E00520C043E7E700BF50881D
:102D8000D24DA84202DD0520C043DFE72160508814
:102D9000401E0005000D20612068012528432060A9
:102DA0000020D3E770B50446002C0ED10120800727
:102DB000806A012109048843890388620846006B00
:102DC00089138843890308634CE0012C0CD1A007C8
:102DD000806A61048843490388620846006B49138E
:102DE0008843490308633DE0022C0CD16007806AE8
:102DF00061048843090388620846006B091388430D
:102E0000090308632EE0032C0ED101208007806A9D
:102E10000121C9048843C90288620846006BC912AF
:102E20008843C90208631DE0042C0CD12007806A86
:102E3000E1058843490188620846006B49118843CF
:102E4000490108630EE0052C0CD1A007806A01211E
:102E500089068843090188620846006B0911884386
:102E6000090108632046FFF73DFF0546002D15DBED
:102E7000E906C90E012088409549086000BF00BFDF
:102E800000BFBFF34F8F00BF00BF00BF00BF00BF38
:102E900000BFBFF36F8F00BF00BF00BF00BF0020A7
:102EA00070BDFFB583B004460F460C2060438949CE
:102EB00045182046FFF706FF029000202860686052
:102EC000A860059868600698A860002C1AD10120B7
:102ED0008007806A012109048843890388620846C3
:102EE000006B89138843890308630846806A891345
:102EF0000843890388620846006B891308438903E5
:102F0000086388E0012C18D1A007806A6104884317
:102F1000490388620846006B4913884349030863E4
:102F20000846806A49130843490388620846006BD3
:102F300049130843490308636DE0022C18D1600768
:102F4000806A61048843090388620846006B09139C
:102F50008843090308630846806A09130843090384
:102F600088620846006B091308430903086352E0AE
:102F7000032C1AD101208007806A0121C9048843EB
:102F8000C90288620846006BC9128843C9020863F7
:102F90000846806AC9120843C90288620846006B65
:102FA000C9120843C902086335E0042C18D1200770
:102FB000806AE1058843490188620846006B49112F
:102FC0008843490108630846806A4911084349015A
:102FD00088620846006B49110843490108631AE0FA
:102FE000052C18D1A007806A0121890688430901B0
:102FF00088620846006B0911884309010863084686
:10300000806A09110843090188620846006B0911AA
:103010000843090108633A4628460299FFF770FE03
:1030200001900198002805D02046FFF7BBFE0198CB
:1030300007B0F0BD2046FFF755FE0646002E05DB23
:10304000F106C90E012088402349086000BF2046D0
:10305000FFF748FE0646397900F0B4F92046FFF73D
:1030600041FE0646002E0ADB00BF00BFF106C90E76
:103070000120884016498039086000BF00BF00BFAA
:103080000198D5E770B505460C462846FFF71AFEAD
:10309000064630680C2108402070002070BD70B5D5
:1030A00006460D4600BF3046FFF70CFE0446681E7C
:1030B000606020680121C90308432060002070BDC2
:1030C000002100400027004000250040FF0F0000C5
:1030D00080E100E0A008002080E200E0FFB581B0C0
:1030E00005460E460A9F0C206843D24940180090BE
:1030F0002846FFF7E7FD0446F807C00F002803D075
:103100002068202108432060009847700498606080
:103110000398A060002E05D12068FF2101310843EB
:10312000206004E02068FF2101318843206020688E
:103130000121C90308432060002005B0F0BD70B52F
:1031400006460D4600BF3046FFF7BCFD044620682A
:10315000C021884320602068A90108432060002026
:10316000C043606020680121C9030843206000203B
:1031700070BD70B505462846FFF7A4FD04462068DB
:103180000121C90388432060002070BD70B5054649
:103190000C462846FFF796FD064670692060002021
:1031A00070BD70B504462046FFF78CFD0546012032
:1031B0002860002070BDF8B506460C46154630461E
:1031C000FFF780FD0746002D02D1F868206002E07D
:1031D0009948C06820600020F8BDFFB581B00D4659
:1031E00016461F460198FFF76DFD009093488642F2
:1031F00003DD0520C04305B0F0BD0198042826DAA0
:10320000002D1CD101208007846B011220468843C9
:103210000446080284638A4800698A49084088494C
:10322000086108460069390608438549086108466F
:1032300000690A9909040843814908612CE00120CA
:103240008007846B001204430002846324E0002D95
:103250001BD101208007846B8112204688430446DD
:103260008802846376484069C00AC0027449486194
:103270000846406939020843714948610846406977
:103280000A9908436E49486106E001208007846B73
:103290008012044380028463701E0105090D0098AA
:1032A00001610020A7E7F8B507460E4615463846E7
:1032B000FFF708FD0446002E04D0012E0FD0022E89
:1032C00019D100E000BF002D04D020682021084360
:1032D000206003E020682021884320600EE0002D5C
:1032E00004D0206810210843206003E020681021EA
:1032F0008843206002E00520C043F8BD00BF0020E5
:10330000FBE77CB50646002001900C20704349493C
:1033100044183046FFF7D6FC054628680C210840C3
:103320000090286808432860606800282BD0684611
:10333000007804210840002807D0207801281BD1FC
:10334000022101980843019016E02078002802D05D
:103350002078022804D101210198084301900BE054
:103360002078032808D16078C007C00F002803D058
:1033700004210198084301900198002803D0626855
:10338000A168019890477CBD10B50020FFF7B9FFF8
:1033900010BD10B50120FFF7B4FF10BD10B502201D
:1033A000FFF7AFFF10BD10B50320FFF7AAFF10BD58
:1033B00010B50420FFF7A5FF10BD10B50520FFF7DD
:1033C000A0FF10BD10B5002819DB1F4A03231B0204
:1033D000D21883089B00D2588307DC0EFF23A3403A
:1033E0009A438B071B0E8407E40EA3401A43164B27
:1033F000032424021B198408A4001A5118E0134A5C
:1034000003071B0F083B9B089B00D2588307DC0E69
:10341000FF23A3409A438B071B0E8407E40EA340AF
:103420001A430A4B0407240F083CA408A4001A51AD
:1034300010BD0000A008002000250040FF0F000084
:1034400080000040FFFF00F800E100E01CED00E01C
:10345000F0B585B00E46154600242879002806D020
:10346000012805D0022804D0032806D102E000BFBD
:1034700000BF00BF2879044303E00520C04305B026
:10348000F0BD00BF6879002806D0012809D00228C5
:103490000ED0032816D110E00821204688430446A8
:1034A00013E00820044310212046884304460CE022
:1034B000082004431020044307E008200443202090
:1034C000044302E00520C043D9E700BFA8790028E3
:1034D00002D0012808D104E0042120468843044694
:1034E00005E00420044302E00520C043C7E700BF15
:1034F000F460F848006847082868010103913846DD
:10350000039902F021FF0290039902984843391A67
:10351000009100990802039902F016FF01900298A9
:1035200080B230620198C0B270620020A7E770B527
:103530000546002D0ED101208007C06A0121090334
:1035400088438904C8620846406B8914884389040B
:1035500048630DE0012D0BD1A807C06A69038843B9
:103560004904C8620846406B4914884349044863CB
:10357000284600F053FB0446002C15DBE106C90E7B
:1035800001208840D449086000BF00BF00BFBFF3DE
:103590004F8F00BF00BF00BF00BF00BF00BFBFF321
:1035A0006F8F00BF00BF00BF00BF002070BDFFB520
:1035B00083B00E46282103984843C849471803980A
:1035C00000F027FB04462821384602F0BBFE059890
:1035D000386006987860C248844218D10004C06AF6
:1035E000A11488438904C8620846406B8914884343
:1035F000890448630846C06A891408438904C8627C
:103600000846406B89140843890448631AE0B548AA
:10361000844217D18005C06A611488434904C86296
:103620000846406B49148843490448630846C06A09
:10363000491408434904C8620846406B49140843CA
:103640004904486301E0206802906069C007C00F28
:103650000028F8D100BF6069202108400028FAD076
:1036600000206060E060206160690290A0680290C4
:10367000324621463846FFF7EBFE019001980028BC
:1036800005D00398FFF753FF019807B0F0BD0398EA
:1036900000F0C4FA0546002D05DBE906C90E01203D
:1036A00088409149086000BF039800F0B7FA0546CA
:1036B000F17900F077FA039800F0B0FA0546002D92
:1036C0000ADB00BF00BFE906C90E0120884082491D
:1036D0008039086000BF00BF00BF0198D5E7FFB583
:1036E00081B00746282078437C494418384600F0CA
:1036F00090FA05462420005D00017C494618207A96
:10370000C007C00F002803D00220C04305B0F0BDA1
:10371000A06840084000401CA0600298E060039848
:1037200060610020E0610498002815D10BE0E06999
:10373000411CE161E168095C296000BF68692021E2
:1037400008400028FAD0E16960698842EFD8A06893
:1037500040084000A06029E02520005D002816D028
:1037600068682021084368602420005D6369E1687F
:103770002A460090FEF76BF900BF70688021084070
:103780000028FAD070684008400070600EE0686958
:1037900020210840002805D0E069411CE161E16872
:1037A000095C296068680221084368600020ADE771
:1037B000FFB583B007462820784348494418384667
:1037C00000F027FA05462420005D0001474946180D
:1037D000207A8007C00F002803D00220C04307B022
:1037E000F0BD0221A0688843801CA060049820617D
:1037F0000598A06100202062069800282ED124E0C0
:10380000002100BF6869C007C00F0028FAD06869AE
:10381000082210400143686904221040014368698E
:10382000022210400143002905D0A0689043A06007
:103830000820C043D3E72A680292029AD3B2206AD2
:10384000421C22622269135400BF216AA069884287
:10385000D6D80221A0688843A0601EE02720005D22
:10386000002816D068681021084368602620005D93
:10387000A369226929460190FEF7E9F800BF706844
:10388000802108400028FAD070684008400070602D
:1038900003E0686801210843686000209FE770B575
:1038A0000646282070430D494418304600F0B1F90F
:1038B0000546E86840210843E860E8688843E86016
:1038C000A06840084000A0600221A0688843A06072
:1038D000002070BD5C06002080E100E0E8080020C8
:1038E000004000400041004080E200E00004004051
:1038F000F8B504460D46164628206043CA494718C5
:103900002520C6552420C555002E0ED0002000903D
:1039100000BF6000801CC0B269460870FEF724F842
:1039200069462846FEF769F803E02421C85DFEF7E2
:1039300089F80020F8BDF8B504460D461646282043
:103940006043B94947182720C6552620C555002E83
:103950000FD0B6480068009000BF6000401CC0B2A5
:1039600069460870FEF700F869462846FEF745F8F4
:1039700003E02621C85DFEF765F80020F8BD70B5AC
:1039800005460C46284600F044F906467069402179
:103990000840002802D00020207001E001202070A3
:1039A000002070BD70B505460C46284600F031F980
:1039B000064670694006400E2070002070BD70B54C
:1039C00005460C46284600F024F9064634630020DC
:1039D00070BDF7B50D4617460026009800F019F99E
:1039E00004462B0002F0BEFD0604060A080C0E1069
:1039F00001260CE002260AE0082608E0042606E07C
:103A0000102604E0202602E00520C043FEBD00BFD2
:103A1000002F03D060683043606002E06068B0430C
:103A200060600020F2E7F0B585B006460020019006
:103A3000282070437C494418304600F0EAF80546D7
:103A400068680490A8680390062103980840062837
:103A500031D1042101980843019068690290102136
:103A600002980840002803D00821019808430190DB
:103A7000082102980840002803D01021019808432B
:103A80000190042102980840002803D020210198C9
:103A900008430190022102980840002803D04021E9
:103AA0000198084301902868C1B200910020686025
:103AB0006846007860E010210498084010280FD173
:103AC0000221A0688843A060002127200155686872
:103AD00010218843686002210198084301901AE090
:103AE000042103980840002815D02F68226A216914
:103AF0008F54206A401C2062216AA06988420AD142
:103B00000221A0688843A06068684008400068609F
:103B100001980843019020210498084020280FD1E3
:103B2000A06840084000A060002125200155686879
:103B300020218843686001210198084301901BE01F
:103B4000022103980840002816D0E1696069884284
:103B500006D0E069411CE161E168095C29600BE085
:103B6000A06840084000A06068680221884368603F
:103B700001210198084301902068002806D001988F
:103B8000002803D0226861680198904705B0F0BD15
:103B900010B50020FFF747FF10BD10B50120FFF75B
:103BA00042FF10BD10B5002819DB214A03231B0278
:103BB000D21883089B00D2588307DC0EFF23A34052
:103BC0009A438B071B0E8407E40EA3401A43184B3D
:103BD000032424021B198408A4001A5118E0154A72
:103BE00003071B0F083B9B089B00D2588307DC0E82
:103BF000FF23A3409A438B071B0E8407E40EA340C8
:103C00001A430C4B0407240F083CA408A4001A51C3
:103C100010BD01460802084A801870470146084650
:103C2000133040B270470000E8080020A867000089
:103C300000E100E01CED00E000400040F0B585B080
:103C40000C46164600253078002802D0307801282E
:103C50007DD120680321890388432060307A0300E6
:103C600002F080FC0504050607080C0000BF00BF39
:103C700000BF00BF307A4002054303E00520C04387
:103C800005B0F0BD00BF707A002804D002280CD027
:103C9000032812D105E0032109032846884305467D
:103CA0000EE00320000305430AE001210903284632
:103CB000884305464800054302E00520C043DFE78E
:103CC00000BF2068284320600025B07A002802D079
:103CD000012808D104E0042128468843054605E070
:103CE0000420054302E00520C043C9E700BF65602A
:103CF0006068FF2101318843606060688900084383
:103D00006060FE48006803907068000102900299AC
:103D1000039802F019FB471E052F0FD86068FF219A
:103D2000013108436060F548006803907068C00086
:103D300002900299039802F007FB471E029878430D
:103D40000399091A009100990802029900E05BE0CA
:103D500002F0FAFA0190B8B220610198C0B2A061F5
:103D6000307801284FD120680321890388432060DF
:103D700020680121890308432060307B002806D099
:103D8000022809D1206880210843206005E02068CE
:103D900080218843206000E000BF00BFB07B002886
:103DA00002D0012812D108E06068802108436060D9
:103DB000606820210843606009E0606880218843D2
:103DC0006060606820210843606000E000BF00BFC1
:103DD000CA480068039070684000029002990398F6
:103DE00002F0B2FA471E029878430399081A00902D
:103DF00000990802029902F0A7FA0190B8B2206176
:103E00000198C0B2A06197E030780328FBD1206808
:103E10000321890308432060307A030002F0A2FBEB
:103E20000504050607080C0000BF00BF00BF00BF67
:103E3000307A4002054302E00520C04320E700BF7E
:103E4000F07A002802D001280AD103E0FF200130D7
:103E5000054306E0FF21013128468843054600E07E
:103E600000BF00BF307B002812D0012819D00228E3
:103E700002D003281CD106E08020054340212846BB
:103E80008843054615E0802005434020054310E0A7
:103E90008021284688430546402128468843054618
:103EA00007E080212846884305464020054300E07E
:103EB00000BF00BF2068284320600025B07B002899
:103EC00002D0012808D102E08020054305E08021CE
:103ED00028468843054600E000BF00BF707B0028ED
:103EE00006D0012807D1102128468843054603E063
:103EF0001020054300E000BF00BF606828436060F9
:103F00007E48006803907068400002900299039810
:103F100002F01AFA471E3946029841430398411AA3
:103F2000009100990802029902F00EFA0190B8B2CD
:103F300020610198C0B2A06120680321084320607D
:103F400060680121490208436060002098E670B56E
:103F50000546002D0ED101208007C06AFF210131E6
:103F600088438905C8620846406B891588438905DE
:103F700048630DE0012D0BD1A807C06A6902884390
:103F80004905C8620846406B49158843490548639E
:103F9000284600F0AEFC0446002C15DBE106C90EF5
:103FA000012088405649086000BF00BF00BFBFF332
:103FB0004F8F00BF00BF00BF00BF00BF00BFBFF3F7
:103FC0006F8F00BF00BF00BF00BF002070BDFFB5F6
:103FD00081B00E462821019848434A494718019864
:103FE00000F082FC04462821384602F0ABF9039821
:103FF0003860049878604448844219D101208007D1
:10400000C06AA11588438905C8620846406B8915B6
:104010008843890548630846C06A891508438905AD
:10402000C8620846406B89150843890548631AE051
:104030003648844217D18005C06A61158843490516
:10404000C8620846406B49158843490548630846DD
:10405000C06A491508434905C8620846406B4915BE
:1040600008434905486300202060606032462146CD
:104070003846FFF7E3FD00900098002805D001982E
:10408000FFF765FF009805B0F0BD019800F031FC26
:104090000546002D05DBE906C90E012088401C49B4
:1040A000086000BF019800F024FC0546F17B00F099
:1040B000E4FB019800F01DFC0546002D0ADB00BF63
:1040C00000BFE906C90E012088400D49803908600B
:1040D00000BF00BF00BF0098D5E7FFB581B016460E
:1040E00028210198484307494418019800F0FCFB37
:1040F0000546207A8007C00F00280BE05C060020F0
:1041000080E100E03809002000380040003900401C
:1041100080E200E004D1207AC007C00F002803D05D
:104120000220C04305B0F0BD002E04D0A0684008B6
:104130004000401CA0600A98002804D00221A0681A
:104140008843801CA06066610A98A06100202062FC
:10415000E061049820610298E0600B9800287DD10E
:1041600065E0686880210840002839D0E16960690D
:10417000884209D800BF8021284600F0C3FB0028F0
:10418000F9D0FF2068610EE000BF8021284600F0D2
:10419000B9FB0028F9D0E168481CE0600F786F6136
:1041A000E069401CE0610CE04021284600F0AAFBD9
:1041B000002806D02021284600F0A4FB002800D0CB
:1041C00000E0F1E700BF6F69216AA06988422DD93C
:1041D0002269501C20611770206A401C206225E073
:1041E00000BF2021284600F08DFB0028F9D06F6920
:1041F000216AA069884206D92269501C2061177083
:10420000206A401C2062E169606988420ED900BFC3
:104210008021284600F076FB0028F9D0E168481C90
:10422000E0600F786F61E069401CE06100BF216AC7
:10423000A069884295D8E1696069884291D80221D5
:10424000A0688843A060A06840084000A0600421E6
:10425000284600F057FB002837D000E006E0A068B1
:1042600040084000A0600820C0435BE72520005DB7
:10427000002803D12720005D002816D0686880211F
:104280000840002808D02422105D2A4614326369B1
:10429000E168FDF7DCFB18E02621085D29461431B2
:1042A000A3692269FDF7D3FB0FE06868802108400D
:1042B000002804D0286820210843286005E0002059
:1042C0006861286808210843286000202AE7FFB5B4
:1042D00083B007461E4628207843FE4944183846D6
:1042E00000F002FB05462868032189030840884244
:1042F00009D100200346019600903846059A04999A
:10430000FFF7EBFE3DE0207AC007C00F002803D086
:104310000220C04307B0F0BDA06840084000401C28
:10432000A0600498E060059860610020E061002EC4
:1043300015D10BE0E169481CE061E068405C686110
:1043400000BFE868802108400028FAD0E169606970
:104350008842EFD8A06840084000A06011E0252006
:10436000005D002809D02420005D6369E1682A46C9
:1043700014320290FDF76BFB03E02868202108430C
:1043800028600020C6E7FFB583B00E4617462821F7
:1043900003984843CF494418039800F0A5FA05460E
:1043A0002868032189030840884209D106983346CA
:1043B00000221146009701900398FFF78EFE3FE020
:1043C000207A8007C00F002803D00220C04307B026
:1043D000F0BD0221A0688843801CA0602661A7610F
:1043E000002020620698002818D10EE000BFE8687F
:1043F000202108400028FAD0686902900298C1B2D2
:10440000226A501C206220698154216AA069884276
:10441000ECD80221A0688843A06011E02720005D4D
:10442000002809D02620005DA3692269294614319D
:104430000190FDF70CFB03E0286808210843286081
:104440000020C4E7F8B504460D4616462820604310
:10445000A04947182520C6552420C555002E0ED04A
:104460000020009000BF6000801DC0B26946087047
:10447000FDF77AFA69462846FDF7BFFA03E02421E2
:10448000C85DFDF7DFFA0020F8BDF8B504460D461B
:104490001646282060438F4947182720C6552620F6
:1044A000C555002E0FD08C480068009000BF6000FA
:1044B000401DC0B269460870FDF756FA69462846A5
:1044C000FDF79BFA03E02621C85DFDF7BBFA00204B
:1044D000F8BD70B505460C46284600F005FA0646BC
:1044E000F06840210840002802D00020207001E040
:1044F00001202070002070BD70B505460C4628468E
:1045000000F0F2F90646F0682070002070BDF7B5A3
:104510000D4616460027009800F0E6F90446022DE5
:1045200006D0032D06D0042D06D0052D08D105E0B8
:10453000042708E0082706E0102704E0202702E00F
:104540000520C043FEBD00BF002E03D020683843C5
:10455000206002E02068B84320600020F2E7F0B558
:1045600085B006460020029028207043594944181F
:10457000304600F0B9F90546E86803902868032141
:104580008903084088427BD1686880210840002860
:1045900078D06169E069884226D28021284600F0FF
:1045A000B1F900280DD0216AE069884209D1E1689B
:1045B000481CE0600878019001986861E069401C3F
:1045C000E06100BF4021284600F09CF90028F9D0A6
:1045D0002021284600F096F9002804D0686901904F
:1045E000206A401C206232E1A169206A884229D2F7
:1045F0008021284600F086F900280AD0216AE06967
:10460000884206D1FF20019001986861E069401C52
:10461000E06100BF4021284600F074F90028F9D07D
:104620002021284600F06EF90028DCD0686901904E
:104630000198C1B22269501C20611170206A401C8F
:10464000206204E10221A0688843A060A0684008BD
:104650004000A0602868282188432860206800283E
:10466000C1D00421284600F04DF9002803D0402194
:104670000298084302900121029808430290E6E064
:104680007AE0FFE72021284600F03CF90028AAD074
:1046900068690190A169206A884237D20198C1B245
:1046A0002269501C20611170206A401C2062802108
:1046B000284600F027F9002801D000206861A16990
:1046C000206A88428FD30221A0688843A060A06836
:1046D000400803E038090020AC6700004000A060FB
:1046E000286828218843286020680028A9D0042150
:1046F000284600F007F9002803D04021029808431B
:1047000002900121029808430290A0E06169E069EB
:10471000884296D28021284600F0F4F8002809D07B
:10472000E168481CE0600878019001986861E069E0
:10473000401CE0616169E0698842A0D30221A06861
:104740008843A060A06840084000A0602868282135
:10475000884328602068002879D00421284600F08A
:10476000D1F8002803D0402102980843029001218B
:104770000298084302906AE0042103980840002848
:1047800009D1022103980840002804D10398C007EA
:10479000C00F002823D004210298084302900398F8
:1047A0000840002803D040210298084302900221CB
:1047B00003980840002803D0102102980843029073
:1047C0000398C007C00F002803D020210298084397
:1047D00002906869C1B200916846007837E02021F4
:1047E00003980840002816D06F69226A21698F5407
:1047F000206A401C2062216AA06988420BD10221F4
:10480000A0688843A06028680821884328600221A6
:10481000029808430290802103980840002816D08F
:10482000E1696069884206D0E169481CE061E0689E
:10483000405C68610BE0A06840084000A060286808
:1048400020218843286001210298084302902068B3
:10485000002806D00298002803D0226861680298D8
:10486000904705B0F0BD10B50020FFF778FE10BDF1
:1048700010B50120FFF773FE10BD10B5002819DB3D
:10488000224A03231B02D21883089B00D2588307B5
:10489000DC0EFF23A3409A438B071B0E8407E40E14
:1048A000A3401A43194B032424021B198408A400B3
:1048B0001A5118E0164A03071B0F083B9B089B0080
:1048C000D2588307DC0EFF23A3409A438B071B0EAD
:1048D0008407E40EA3401A430D4B0407240F083C41
:1048E000A408A4001A5110BD01460802094A801804
:1048F00070470146002901D10B207047084610304F
:1049000040B2FAE70246D0680840704700E100E094
:104910001CED00E00038004070B50446002520780A
:10492000012812D18007806B012108438907886321
:10493000C7488069C00AC002C549886108468069C5
:1049400001210843C249886107E001208007806B8C
:10495000400840000121890788636078032802DD50
:104960000520C04370BD60780543A07800280CD1B5
:104970003F2189022846884305460C212846884362
:1049800005463F208002054311E0A07801280BD1A5
:104990003F2189022846884305460C212846884342
:1049A0000546AC48054302E00520C043DAE7AA48C3
:1049B0002843AA4908606068002803D0A8496068B5
:1049C000C86002E0A748A649C8600220002805DBAD
:1049D000C206D20E01219140A34A116000BF217A84
:1049E000022000F0FEF80220002809DB00BF00BF13
:1049F000C206D20E012191409C4A116000BF00BF47
:104A000000BF0020AEE770B506460C461546B078EC
:104A1000012800D100BF9248046045603046FFF78E
:104A20007BFF002070BD8E480021016041608160E5
:104A3000C1608F48894908600220002816DBC20641
:104A4000D20E01219140894A8032116000BF00BF1F
:104A500000BFBFF34F8F00BF00BF00BF00BF00BF4C
:104A600000BFBFF36F8F00BF00BF00BF00BF0020BB
:104A70007047024600217A4882608068784BDB6884
:104A8000984218D9764880680002000A734B9860F3
:104A90007348C0680002000A1861184601683F2385
:104AA0001B01084698430146082001436A48084311
:104AB0006A4B186007E06A4880680002000A674B8A
:104AC000986068481861654801683F231B010846E3
:104AD0009843014667480843604B186000207047C0
:104AE00000215E4801683F221201084690430146BA
:104AF00059480843594A1060002070475748C16818
:104B000002690068FF23A1331840002809D15A48E0
:104B10000078002805D100BF9142FDD20120564BFC
:104B200018706A204D4B58610020704701464B4871
:104B3000C068086000207047014648484068C2B21B
:104B4000D007C00F002803D102201040002803D056
:104B500080200843414B58600020704710B5034641
:104B6000012B16D18007806B012420439C07A06392
:104B700037488069C00AC002354CA0612046806970
:104B80000C022043324CA061204680691043A06192
:104B900007E001208007806B400840000124A40743
:104BA000A063002010BD10B504462C4840680221C7
:104BB0000840002802D00220FFF7BEFF27484068C7
:104BC000C007C00F002802D00120FFF7B5FF24481E
:104BD0000068002804D022484168026820469047B7
:104BE00010BD10B5002819DB204A03231B02D21880
:104BF00083089B00D2588307DC0EFF23A3409A430F
:104C00008B071B0E8407E40EA3401A43174B0324A3
:104C100024021B198408A4001A5118E0174A03073C
:104C20001B0F083B9B089B00D2588307DC0EFF2319
:104C3000A3409A438B071B0E8407E40EA3401A433C
:104C40000E4B0407240F083CA408A4001A5110BD01
:104C50008000004004940000A001695A001A00403E
:104C600088090020FFFFFF0080E200E000E100E093
:104C7000A095695A0000695A840600201CED00E0E6
:104C80006A20FE494861704710B5FD48808EC00714
:104C9000C00F002805D1FA48008FC007C00F0028B8
:104CA00009D0052208210020FCF7E6FF0222082196
:104CB0000020FCF7CCFFF248406B0221084000289E
:104CC00004D1EF48806B0840002809D00522092153
:104CD0000020FCF7D1FF022209210020FCF7B7FFDA
:104CE000E748406B04210840002804D1E448806B69
:104CF0000840002809D005220A210020FCF7BCFF4B
:104D000002220A210020FCF7A2FFDD48406B0821A7
:104D10000840002804D1DA48806B0840002809D0F8
:104D200005220B210020FCF7A7FF02220B21002007
:104D3000FCF78DFFD248406B10210840002804D1B9
:104D4000CF48806B0840002809D0052200210120AF
:104D5000FCF792FF022200210120FCF778FFC848EF
:104D6000406B20210840002804D1C548806B0840D2
:104D7000002809D0052201210846FCF77DFF022208
:104D800001210846FCF763FFBD48406B4021084005
:104D9000002804D1BA48806B0840002809D00522B9
:104DA00002210120FCF768FF022211460120FCF7D6
:104DB0004EFFB348406B80210840002804D1B04822
:104DC000806B0840002809D0052204210120FCF74F
:104DD00053FF022204210120FCF739FFA848406B51
:104DE000FF2101310840002804D1A548806B08400C
:104DF000002809D0052211460120FCF73DFF0222C0
:104E000005210120FCF723FF9D48406B0121490249
:104E10000840002804D19A48806B0840002809D037
:104E200005220A210120FCF727FF02220A21012086
:104E3000FCF70DFF9248406B0121890208400028D1
:104E400004D18F48806B0840002809D005220B212F
:104E50000120FCF711FF02220B210120FCF7F7FED5
:104E60008748406B0121C9020840002804D18448CA
:104E7000806B0840002809D0052200210220FCF7A1
:104E8000FBFE022200211046FCF7E1FE7C48406B4D
:104E9000012109030840002804D17948806B0840AB
:104EA000002809D0052201210220FCF7E5FE02229C
:104EB00001211046FCF7CBFE7148406B01214903EC
:104EC0000840002804D16E48806B0840002809D0B3
:104ED000052202210846FCF7CFFE022211461046A9
:104EE000FCF7B5FE6648406B0121890308400028A5
:104EF00004D16348806B0840002809D005220321B3
:104F00000220FCF7B9FE022203211046FCF79FFEA7
:104F10005B48406B0121C9030840002804D1584870
:104F2000806B0840002809D0052204210220FCF7EC
:104F3000A3FE022204211046FCF789FE5048406B74
:104F4000012109040840002804D14D48806B084025
:104F5000002809D0052200210320FCF78DFE022243
:104F600000210320FCF773FE4548406B01214904F2
:104F70000840002804D14248806B0840002809D02E
:104F8000052201210320FCF777FE022201210320E4
:104F9000FCF75DFE3A48406B012189040840002877
:104FA00004D13748806B0840002809D0052202212F
:104FB0000320FCF761FE022211460320FCF747FEA6
:104FC0002F48406B0121C9040840002804D12C4817
:104FD000806B0840002809D0052203210846FCF711
:104FE0004BFE022203210846FCF731FE2448406BA9
:104FF000012109050840002804D12148806B0840A0
:10500000002809D0052204210320FCF735FE0222E6
:1050100004210320FCF71BFE1948406B01214905C0
:105020000840002804D11648806B0840002809D0A9
:10503000052211460320FCF71FFE02220521032052
:10504000FCF705FE0E48406B012189050840002849
:1050500004D10B48806B0840002809D005220021AC
:105060000420FCF709FE022200210420FCF7EFFDDA
:105070000348406B0121C905084003E0001A0040C5
:1050800098090020002804D1FE48806B08400028C1
:1050900009D0052201210420FCF7EEFD02220121A6
:1050A0000420FCF7D4FD052200210846FCF7E4FDAE
:1050B000022200210846FCF7CAFD01208007C06AD1
:1050C0000121490688434901C8620846406B4911DD
:1050D0008843490148630846C06A491108434901A9
:1050E000C8620846406B491108434901486310BD36
:1050F00070B504460D46012C01D0012D23D1012CA1
:1051000004D1E048416AE048016402E00021DE4841
:105110000164012D0FD1052201210420FCF7ACFD13
:10512000022201210420FCF792FDD748006CE90718
:105130000843D5490864D448006C01210906084396
:10514000D149086406E0D048006C01210906884373
:10515000CD49086470BD10B50022CA4B1A706D228B
:105160005A700023C74A203253749374203213803C
:10517000538000210AE00023C24A8032D26953548E
:10518000C04A8032526853544A1CD1B2BD4A2032C0
:10519000D27C8A42EFDCBB4AA032127C5208520019
:1051A000B84BA0331A740023B64A8032536193611E
:1051B0001361FF23203A13734032127CD209002A74
:1051C00011DD00200CE0AF4A926B012383401A40AE
:1051D000002A03D0AB4A2032107403E0421CD0B244
:1051E0001828F0DB00BF0021002014E0A54A526B14
:1051F000012383401A40002A0BD0A24AD46A0A46EF
:105200004B1CD9B2A0549F4A2032D27C8A4200DC87
:1052100003E0421CD0B21828E8DB00BF10BD70B517
:105220000020994920390862FF21A1319648416048
:1052300040689449897941189348416093480078BF
:105240004006C00F002806D18F484068FF21013179
:1052500088438D4948608B48818B8B48C162FF2110
:105260000161742141618748418B874801630821AE
:1052700081618448C0798449C861202182480162E3
:105280008048017A80484162FF2181620025002424
:1052900020E0032C01D0102C10D17B48A1004658EF
:1052A000300C29466A1CD5B24A00794988522946F1
:1052B000681CC5B249007648465209E07248A10010
:1052C000405882B22846691CCDB241007048425213
:1052D000601CC4B2112CDCDB6A4AA032127C1207BB
:1052E000D10F684AA032127CD206D00FFFF700FF20
:1052F00070BD10B5634AD26A115C634AD26801235B
:105300008B401A43604BDA6001225F4B203B1A62EC
:1053100000BF5D4A203A126A04231A40002AF8D0DE
:10532000584AD26A125CD2005A4BD218126893B211
:10533000544A8032D26B84001353524AD26A125CB0
:105340005200521C9200534BD218126893B24D4A2D
:105350008032D26B84001219538000224A4B203BCA
:105360001A62494AD26801238B409A43464BDA605D
:1053700010BD10B54349C96A0A5C00234249CB609D
:10538000C9680123934019433F4BD9603D49C9681F
:105390000B5C3D498B603B4949690B5C3A494B6169
:1053A00001213D4B99620021374B203B19621D21A1
:1053B000002905DBCC06E40E0123A340374C236013
:1053C00000BF1D21002909DB00BF00BFCC06E40E91
:1053D0000123A340324C236000BF00BF00BF012166
:1053E000294B203B196210BD70B5002406E0002156
:1053F00025486038A2008150601CC4B2182CF6DB2E
:10540000214840681C2188431F4948601D48807816
:10541000002803D01B488078012875D1002419E0AA
:105420001848C068015D1848816016484069015DF0
:10543000154841612046FFF75CFF12488030C06B81
:10544000A100405A0F49096A62008852FFF718FC10
:10545000601CC4B20B482030C07CA042E0DC0024B9
:105460000AE00121C90208486038064AD26A125D82
:1054700092008150601CC4B202482030C07CA0421F
:10548000EFDC0FE0980900202037004000000020EA
:10549000A40A0020003600404000004080E200E006
:1054A00000E100E0FE4840680C210843FC494860E8
:1054B0000D1500BF00243BE0FA48C068015DF848C4
:1054C0008160F8484069015DF54841612046FFF779
:1054D00010FFF4488030C06BA100405AF149096ABE
:1054E0006200895A884210DDED486038ED49C96A8A
:1054F000095D890040584119E9486038E94AD26A93
:10550000125D920081500FE070E0E5486038E54997
:10551000C96A095D89004058411BE1486038E14A89
:10552000D26A125D92008150FFF7AAFB601CC4B2E0
:10553000DC482030C07CA042BEDC6D10002DB9D10B
:1055400000BF00BF002418E0D5486038D549C96ABB
:10555000095D890040584004060CD1486038D149A3
:10556000C96A095D890040584008801986B2CD4853
:10557000806A61004652601CC4B2CA482030C07CB8
:10558000A042E1DCC7488078002817D1002409E058
:105590000021C3486038C34AD26A125D920081502C
:1055A000601CC4B2BF482030C07CA042F0DCBC48C4
:1055B00040681C218843BA494860E9E0B9488078CE
:1055C0000128FAD1B748818BB548C162B548418BF3
:1055D000B3480163406818218843B14948600846D0
:1055E000406804210843AE494860D1E0AD48807866
:1055F0000228E2D10020AB49C8700846C068017893
:10560000A7488160A74840690178A548416100200A
:10561000FFF76FFEA3488030C06B0088A149096A7C
:10562000088001241AE02046FFF763FE9D48803081
:10563000C06BA100405A9B49096A0988884209DA6F
:1056400098488030C06BA100405A9649096A08808A
:105650009448C470FFF714FB601CC4B2914820301A
:10566000C07CA042DFDC8E484068142188438C490E
:1056700048600846406808210843894948608949CC
:10568000C878FFF736FE87488030C06B8549C978F7
:105690008900405A8349096A088000240EE0814845
:1056A000C078A04208D00121C9027D4860387D4AF7
:1056B000D26A125D92008150601CC4B279482030D9
:1056C000C07CA042EBDC0125AD0200BF002435E028
:1056D0007448C078A04200D12EE02046FFF709FEB2
:1056E00070488030C06BA100405A6E49096A098831
:1056F00088420FDD6A4860386A49C96A095D8900D5
:105700004058411966486038664AD26A125D920074
:1057100081500EE0624860386249C96A095D8900BB
:105720004058411B5E4860385E4AD26A125D920062
:105730008150FFF7A5FA00BF601CC4B25948203061
:10574000C07CA042C4DC6D10002DBFD100BF00BFE3
:10575000002418E0524860385249C96A095D89003E
:1057600040584004060C4E4860384E49C96A095DED
:10577000890040584008801986B24A48806A610012
:105780004652601CC4B247482030C07CA042E1DCD5
:10579000002408E042486038A10040586100424AB5
:1057A0005052601CC4B2182CF4DB70BD10B5FBF76E
:1057B000BBFBC007C00F002878D00120FBF71BFC03
:1057C000012874D1002475E036488030C06BA100F8
:1057D000415A34488030806BA20081523148803079
:1057E000C06BA100401841882E488030806BA20019
:1057F000801841802B488030C06BA100415A294855
:105800008030806CA200815226488030C06BA1009D
:105810004018418823488030806CA2008018418065
:1058200020488030C06BA100415A1E488030006D76
:10583000A20081521B488030C06BA10040184188F3
:1058400018488030006DA200801841800021154862
:105850008030406DE200815012488030406DE2009F
:10586000801841600F488030806DA20081520D4841
:105870008030806DA200801841800A488030406BE3
:10588000A200815207488030406BA20080184180FE
:1058900000200449096D08550249496D085507E083
:1058A0002037004098090020740A00201AE01FE009
:1058B000601CC4B2F648C07CA04285DCF4482038A5
:1058C000818F403001804038C18F403041800021BD
:1058D00041846030007C40084000401CEC4980312D
:1058E000087405E0EA48203881880120FBF7F9FABE
:1058F00010BDF8B5FBF718FB0421084000287DD047
:105900000420FBF778FB012879D10024B8E0E048B7
:105910006030406DE100405800280CD0DC48603019
:10592000406DE10040184068002804D0D84820307D
:10593000408C002803D10420FBF7F9FAF8BD0025BC
:1059400099E0D34A6032526DE300D218AB00D058D0
:10595000CF4A2032518C00F0F7FC81B2CC48603045
:10596000806DA20080186A0081520120A040C849C1
:10597000603149690840002873D1C5486030C0696A
:10598000005D002863D1C2492039896F6200895ABD
:10599000BF4A60321268125D51430846642100F02C
:1059A000D3FCBB492039096F6200895A884205D966
:1059B000B7482038C06D005D009004E0B44820383E
:1059C000806D005D0090B2496031096DA2008918B8
:1059D0006A00895A009A5143AD4A6032926DA30021
:1059E000D2186B00D25A88180099491C00F0ACFC00
:1059F00086B2A74A6032D26CA30001E07BE04DE0A2
:105A0000D2186B00D25AB01AA14A6032126DA300AC
:105A1000D2186B00D35A9E4A6032D26CA700D219BA
:105A20006F00D25B991A002901DB0A4600E04A4266
:105A3000002801DB034600E043429A4211DD94480E
:105A40006030006DA10040186900465209E090489E
:105A50006030C069005D401EC1B28D486030C069D1
:105A6000015500218A486030406DE2008018AA008C
:105A70008150681CC5B2022D00DA62E7601CC4B216
:105A80008348C07CA04200DD41E7002180482030EF
:105A90004184018C0420FBF724FA4AE000241DE035
:105AA000002517E07A486030406DE1004018A900F9
:105AB000415877486030C06CA20080186A00805A54
:105AC000091873486030406DE2008018AA008150C8
:105AD000681CC5B2022DE5DB601CC4B26C48C07CFA
